:020000040800F2
:10000000C006002439030008632300089922000871
:1000100061230008AD040008FD2B0008000000006B
:10002000000000000000000000000000692A000835
:10003000AF04000800000000652300086B2A0008D8
:100040005303000853030008530300085303000838
:100050005303000853030008530300085303000828
:100060005303000853030008530300085303000818
:100070005303000853030008530300085303000808
:1000800053030008530300085303000853030008F8
:1000900053030008530300085303000853030008E8
:1000A00053030008530300085303000853030008D8
:1000B00053030008530300085303000853030008C8
:1000C00053030008530300085303000853030008B8
:1000D00053030008530300085303000853030008A8
:1000E00053030008530300080000000053030008F6
:1000F0005303000853030008530300085303000888
:100100005303000853030008530300085303000877
:100110005303000853030008530300085303000867
:100120005303000853030008530300085303000857
:100130005303000853030008530300085303000847
:1001400000000000000000000000000000000000AF
:100150005303000853030008530300085303000827
:100160005303000853030008530300085303000817
:100170005303000853030008530300085303000807
:1001800053030008530300085303000853030008F7
:1001900053030008530300085303000853030008E7
:1001A00053030008530300085303000853030008D7
:1001B00053030008530300085303000853030008C7
:1001C00053030008530300085303000853030008B7
:1001D00053030008530300085303000853030008A7
:1001E0005303000853030008530300085303000897
:1001F0005303000853030008530300085303000887
:100200005303000853030008530300085303000876
:100210005303000853030008530300085303000866
:1002200053030008530300085303000800000000B4
:1002300053030008530300080000000053030008A4
:100240005303000853030008530300085303000836
:100250005303000853030008530300085303000826
:100260005303000853030008530300085303000816
:100270005303000853030008530300080000000064
:100280005303000853030008530300080000000054
:10029000000000005303000800F002F800F03CF8F2
:1002A0000AA090E8000C82448344AAF10107DA45D1
:1002B00001D100F031F8AFF2090EBAE80F0013F0E7
:1002C000010F18BFFB1A43F001031847D0290000A3
:1002D000F0290000103A24BF78C878C1FAD8520734
:1002E00024BF30C830C144BF04680C6070470000B0
:1002F0000023002400250026103A28BF78C1FBD82F
:10030000520728BF30C148BF0B6070471FB502F0CD
:10031000B8FC1FBD10B510BD00F058F81146FFF72E
:10032000F5FF02F07DFC00F076F803B4FFF7F2FF72
:1003300003BC00F07DF800000948804709480047E9
:10034000FEE7FEE7FEE7FEE7FEE7FEE7FEE7FEE785
:10035000FEE7FEE704480549054A064B70470000E2
:10036000212B000899020008C0000024C0060024C8
:10037000C0020024C00200244FF0000200B5134662
:1003800094469646203922BFA0E80C50A0E80C50B5
:10039000B1F12001BFF4F7AF090728BFA0E80C5066
:1003A00048BF0CC05DF804EB890028BF40F8042B5F
:1003B00008BF704748BF20F8022B11F0804F18BFCC
:1003C00000F8012B7047704770477047754600F082
:1003D0002BF8AE4605006946534620F007008546D7
:1003E00018B020B5FFF7B6FFBDE820404FF000067B
:1003F0004FF000074FF000084FF0000B21F007010D
:10040000AC46ACE8C009ACE8C009ACE8C009ACE84F
:10041000C0098D46704710B50446AFF300802046F2
:10042000BDE81040FFF781BF00487047600000241E
:1004300001491820ABBEFEE726000200704700000D
:1004400010B590B00620ADF8380002F0B7F920BB27
:1004500000200790012100914FF4807406940A0651
:100460000590022341F28834CDE90A30CDE9080233
:100470000C9022460D9069460B4800F00BFB60B9CA
:1004800009480EA9224600F037FD30B9204601F098
:100490007FFF10B902F044F910B1012010B010BD77
:1004A00002F094F80020F9E714000024FEE77047FA
:1004B00072B6FEE72DE9F04F4F4D00224FF0010AD2
:1004C0004FF00F0B92E000BF0AFA02F919EA01039C
:1004D0007ED022F0030606F1B0469407D6F808C491
:1004E000270FDFF818810BFA07FE40450EEA0C04CF
:1004F00002D14FF0000C40E0DFF804C1604502D1AA
:100500004FF0010C39E0DFF8FCC0604502D14FF03C
:10051000020C32E0DFF8F0C0604502D14FF0030C6E
:100520002BE0DFF8E8C0604502D14FF0040C24E076
:10053000DFF8DCC0604502D14FF0050C1DE0DFF8AC
:10054000D4C0604502D14FF0060C16E0DFF8C8C0F9
:10055000604502D14FF0070C0FE0DFF8C0C06045E6
:1005600002D14FF0080C08E0DFF8B4C0604502D1BA
:100570004FF0090C01E04FF00A0C0CFA07FCA445FF
:1005800013D12C689C432C606F684FF0B0449F439C
:100590006F6067689F43676027689F432760D6F84E
:1005A000084424EA0E04C6F8084407680323D40864
:1005B0004FEA42084FEA427C03FA08F34FEADC6C48
:1005C0001F4307600BFA0CF600EB8404276A00E077
:1005D0000BE0B7432762C4689C43C460446824EAC4
:1005E0000904446084689C438460521C31FA02F31D
:1005F0007FF46AAFBDE8F08F800000580000025819
:100600000004025800080258000C0258001002585A
:100610000014025800180258001C0258002002580A
:10062000002402582DE9F84F03247D4D00234FF09C
:1006300001094FF0B04B4FF00F0AE9E009FA03F758
:100640003A4076D00E7906F00306012E01D0022E34
:1006500018D1D0F808C04FEA430ECE6804FA0EF85D
:100660002CEA080C06FA0EF646EA0C068660D0F86C
:1006700004C00E792CEA070CC6F300169E4046EA29
:100680000C0646600E79F643B6070BD0C6684FEAF3
:1006900043088F6804FA08FC26EA0C0607FA08F7F4
:1006A0003743C7600E7906F00306022E12D1DE082A
:1006B0000F694FEA437C00EB8606B646366A4FEA7E
:1006C000DC6C0AFA0CF807FA0CF726EA080637433E
:1006D000CEF820700F7906684FEA430807F0030749
:1006E00004FA08FC07FA08F726EA0C063743076005
:1006F0004E6816F4403F1CD04A4E376847F0020758
:10070000376036689F0706F00206009623F003065E
:1007100006F1B046B6463F0FD6F80864DFF8088108
:100720000AFA07FC404526EA0C0603D14FF0000CFC
:1007300041E06CE0DFF8F4C0604502D14FF0010CFD
:1007400039E0DFF8ECC0604502D14FF0020C32E036
:10075000DFF8E0C0604502D14FF0030C2BE0DFF87A
:10076000D8C0604502D14FF0040C24E0DFF8CCC0C3
:10077000604502D14FF0050C1DE0DFF8C4C06045B4
:1007800002D14FF0060C16E0DFF8B8C0604502D188
:100790004FF0070C0FE0DFF8B0C0604502D14FF01A
:1007A000080C08E0DFF8A4C0604502D14FF0090C46
:1007B00001E04FF00A0C0CFA07FC4CEA060CCEF8EC
:1007C00008C44F68DBF80060FF0226EA020600D585
:1007D00016435F46CBF80060D1F804C0DBF8046034
:1007E0005FEA8C2C26EA020600D516437E606E680E
:1007F0004F6826EA0206BF0300D516436E602E68D6
:100800004F6826EA0206FF0300D516432E605B1CE4
:100810000A6832FA03F67FF411AFBDE8F88F0000E2
:1008200080000058F44402580000025800040258A6
:1008300000080258000C0258001002580014025818
:1008400000180258001C02580020025800240258C8
:1008500001480068000C70470010005C0148806887
:1008600070470000000000240248816802781144AB
:100870008160704700000024032010B500F078F874
:1008800001F09AF90F4A104914681368C4F303225F
:1008900003F00F038A5CC95C02F01F0201F01F0124
:1008A000D0400A4A20FA01F11160094908600F207E
:1008B00000F010F808B1012010BD00F02BF8002066
:1008C00010BD0000184402588C2C000810000024B1
:1008D0000C00002470B50D4D04462878A0B14FF4EB
:1008E0007A71B1FBF0F00A490968B1FBF0F001F050
:1008F000C0FC48B9102C07D200222146501E00F03F
:1009000017F800206C6070BD012070BD000000244D
:100910000C000024054808B5016841F0020101609F
:10092000006800F00200009008BD0000F444025886
:100930000E4BF0B41B680D46C3F30223C3F1070648
:10094000042E00D90426191D072901D2002300E036
:10095000DB1E012404FA06F19C40491E2940641E56
:10096000994014402143F0BC02F049B90CED00E07D
:10097000064900F0070210B54FF6FF040868044B63
:10098000204040EA02201843086010BD0CED00E052
:100990000000FA05134970B50A68D243520705D51D
:1009A000096801F00701814213D118E00A6822F0BA
:1009B000070202430A60FFF751FF0A4D4FF47A76AF
:1009C0000446083D07E000BFFFF748FF001BB042A8
:1009D00001D9012070BD2868C0438004F4D40020F0
:1009E00070BD00000C4802582DE9F84F1E46154610
:1009F0008A460446FFF732FF814694F840000128FA
:100A00000ED001274FF0000884F8407094F84100A0
:100A1000012807D05FF0020084F84080BDE8F88F1D
:100A20000220FBE74221C4F8448084F841100022F0
:100A300020214B462046009601F09CFE0028EBD179
:100A40002168286888622168686848622168A86807
:100A5000C86220682969026822F4400242F48002D8
:100A600011430160E9684FF000622046CAF828107F
:100A7000514601F0B5FC01224B4608212046009664
:100A800001F078FE0028C7D122680821D16084F8DF
:100A90004170C1E72DE9F84F17468B460446FFF732
:100AA000DDFE824694F8400001280ED001264FF06A
:100AB000000884F8406094F84100012807D002251E
:100AC00084F840802846BDE8F88F0220FBE74FF00D
:100AD0000209C4F8448084F8419000222021534642
:100AE0002046009701F046FE0500E9D10022594654
:100AF000204601F075FCDBF8240058B9012253466A
:100B000002212046009701F035FE0500D8D121686A
:100B1000C1F80C9084F84160D2E710B504000CD005
:100B20002068016821F001010160204600F0A4F86E
:100B30000020606484F8410010BD012010BD000059
:100B4000F8B50446FFF78AFE05461CB194F841004B
:100B500010B107E00120F8BD204600F0B9F841F2DD
:100B60008830A06420686FF0FF02A168036802EB80
:100B7000012223F4F85111430160A06C00222021CE
:100B80002B460090204601F0F5FD0028E3D12268B5
:100B9000D4E907352679E168176845EA0665DFF884
:100BA00044C01943104B29430025012607EA0C07CE
:100BB000394311602268D4E90517B4F810C0D2F89F
:100BC00004E039430EEA030E4EEA0C431943516028
:100BD00021680A6842F001020A60656484F8416095
:100BE000F8BD00002FFFFF00FEF8E0FF2DE9F843FD
:100BF000164688460446FFF731FE034694F8400047
:100C000001280ED0012084F84000002794F841000C
:100C1000012808D05FF0020584F840702846BDE83E
:100C2000F8830220FBE7A06C8221676484F84110FE
:100C3000002220210090204601F09CFD0500EBD110
:100C400020687268016821F0080111430160706832
:100C500008280AD122681021306810632068C1601A
:100C60002068016841F4801101604FF04062414604
:100C7000204601F0B5FBCFE710B500680F49884268
:100C80001AD10F48016821F4804101600D4844F2F7
:100C90004021FFF70FFC0C4C4FF470712046FFF71A
:100CA00009FC0A480C21FFF705FC2046BDE810406E
:100CB0004FF48061FFF7FEBB10BD000000500052F2
:100CC000D44402580018025800140258001C02585C
:100CD0002DE9F041B6B0044614216846FFF74CFBFD
:100CE000C02106A8FFF748FB4D49206888427DD106
:100CF00000204FF0007130221992CDE9061006A8AD
:100D000000F056F908B1FFF7D3FB4648016841F4FB
:100D100080410160006800F48040059041480C303B
:100D2000016841F040010160016801F04001059156
:100D3000016841F020010160016801F02001059186
:100D4000016841F080010160016801F080010591B6
:100D5000016841F002010160016801F002010591A2
:100D6000016841F004010160006802240025DFF8F9
:100D7000B88000F0040005904FF4844069460926CD
:100D80008DE83100CDE903464046FFF74BFC40209B
:100D900069460A278DE83100CDE903474046FFF751
:100DA00041FCC020DFF884808DE83100CDE90346A6
:100DB00069464046FFF736FC4FF4407069468DE8BF
:100DC0003100CDE903474046FFF72CFC0420184FC3
:100DD0008DE83100CDE9034669463846FFF722FC2D
:100DE000082069468DE83100384600E015E0CDE97D
:100DF0000356FFF717FC600269468DE83100CDE924
:100E000003464046FFF70EFCA00269468DE831001C
:100E10000848CDE90346FFF705FC36B0BDE8F08190
:100E200000500052D44402580018025800140258CE
:100E3000001C0258000802582DE9F84F15460E46CE
:100E40000446FFF70BFD82462068816994F8403024
:100E500000F12009012B0DD001274FF0000884F884
:100E6000407094F84120012A06D0022084F8408086
:100E7000BDE8F88F0220FBE7C4F84480A6B3222225
:100E800084F841200269521CA2630269521C626309
:100E90002663426922F0406242F08062426120682B
:100EA00081610EE00621204601F064FCC8B999F882
:100EB0000000216B0870206B401C2063A06B401E5B
:100EC000A063A06B53464FF0010200950028E9D1C2
:100ED0004FF00201204601F04DFC10B922680221BA
:100EE000D16084F84170C1E7FFE7616C012041F0F7
:100EF00008016164BAE700002DE9F84F15460E4677
:100F00000446FFF7ABFC94F84010824620680129A4
:100F100000F120090ED001274FF0000884F840703E
:100F200094F84110012907D05FF0020084F8408056
:100F3000BDE8F88F0220FBE7C4F8448086B3122195
:100F400084F841100169491CE1620169491CA162F0
:100F50006662416921F0406141610EE00421204652
:100F600001F008FCC8B9606A017889F80010606A6D
:100F7000401C6062E06A401EE062E06A53464FF047
:100F8000010200950028E9D14FF00201204601F04E
:100F9000F1FB10B922680221D16084F84170C5E7E5
:100FA000FFE7616C012041F008016164BEE70000C9
:100FB0002DE9FE4F0546DFF8E48350F8081B0024B6
:100FC000F64FC943019005F12800264608F1240890
:100FD000009008011DD4A86E50B1B0F5801F0CD050
:100FE000B0F5001F0ED0B0F5401F1ED001240FE059
:100FF000386840F40030386017E00198022101F0B1
:1010000013FC03E00098022101F09EFC04000CD0C8
:1010100026462888C043C00523D4A86D05281ED2C3
:10102000DFE800F00C11161B1B00AA6ED8F80010A8
:1010300021F440111143C8F80010EAE7386840F481
:101040000030386009E00198002101F0EDFB03E079
:101050000098002101F078FC044674B100E00124FE
:1010600026462888C043800528D4E86D80281ED0F5
:101070000CDC90B140280ED114E0AA6DD8F8001015
:1010800021F007011143C8F80010EAE7C02813D087
:10109000B0F5807F10D001240FE0386840F40030B4
:1010A000386009E00198002101F0BEFB03E00098E0
:1010B000002101F049FC04469CB126462888DFF84F
:1010C000DC92C04309F12C0940052CD4D5F8A800C6
:1010D000B0F5800F20D00DDCA0B1B0F5001F0FD10E
:1010E00015E0EA6DD8F8001021F4E0711143C8F85A
:1010F0000010E3E7B0F5C00F13D0B0F5000F10D02B
:1011000001240FE0386840F40030386009E00198AD
:10111000002101F089FB03E00098002101F014FC9C
:1011200004467CB126462888C04300052DD4D5F856
:10113000AC00B0F1007F21D00EDCA8B1B0F1807F0F
:1011400010D116E0D5F8A820D9F8001021F46001DC
:101150001143C9F80010E6E7B0F1407F13D0B0F1B9
:10116000806F10D001240FE0386840F40030386000
:1011700009E00198002101F057FB03E000980021ED
:1011800001F0E2FB044674B126462868C0438001A2
:101190001FD4E86CD8B110280FD0202812D03028E6
:1011A00015D0012414E0D5F8AC20D9F8001021F0B6
:1011B000E0611143C9F80010E7E7386840F40030F7
:1011C000386004E00198022101F02EFB044674B15E
:1011D00026462888C043C0042BD4286EB0F5005F93
:1011E00020D00DDCA0B1B0F5805F0FD115E06B48C9
:1011F000EA6C2030016821F0300111430160E8E71A
:10120000B0F5405F13D0B0F5804F10D001240FE04F
:10121000386840F40030386009E00198002101F09E
:1012200003FB03E00098002101F08EFB04468CB123
:1012300026462888C043800429D4686EB0F5403F14
:1012400023D010DC08B3B0F5803F14D0B0F5003FD8
:101250000FD115E02A6ED8F8001021F4E0411143B7
:10126000C8F80010E5E7B0F5802F0ED0B0F5A02F3C
:101270000BD001240AE00198012101F0D5FA03E026
:101280000098012101F060FB044694B126462888AD
:10129000C04340042AD4D5F8B000B0F1405F23D059
:1012A00010DC08B3B0F1805F14D0B0F1005F0FD153
:1012B00015E06A6ED8F8001021F4E0211143C8F857
:1012C0000010E4E7B0F1804F0ED0B0F1A04F0BD08A
:1012D00001240AE00198012101F0A6FA03E0009838
:1012E000012101F031FB044674B126462888C04331
:1012F00000041FD4286FD8B1B0F1805F0ED0B0F1D8
:10130000005F10D0012414E0D5F8B020D9F8001007
:1013100021F0E0411143C9F80010E7E7386840F4D4
:101320000030386004E00198012101F07DFA0446A4
:1013300074B126462868C043C0011ED4A86CD0B141
:1013400001280ED0022811D0032814D0012413E064
:101350002A6FD8F8001021F040511143C8F800104E
:10136000E8E7386840F40030386004E00198022172
:1013700001F05AFA0446ACB126462868DFF81CB0E2
:10138000C043ABF11C0B400252D40548016841F444
:1013900080710160FFF762FA824611E02C44025826
:1013A00000480258FA48AA6C016821F00301114371
:1013B0000160E2E7FFF752FAA0EB0A00642835D893
:1013C000F4480068C005F5D58CBBDFF8C4A3B5F8B8
:1013D000B4100AF1240ADAF8000001F4407100F4B4
:1013E0004070884211D0DAF80010DAF8002021F4B9
:1013F000407142F48032CAF80020DAF8002022F46A
:101400008032CAF80020CAF80010D5F8B400B0F550
:10141000807F1AD1FFF722FA029012E0FFF71EFA3E
:101420000299411A41F2883081420AD903242646A2
:101430002878DFF85CA3C0430AF1080AC00721D06E
:101440003CE0DAF800008007E8D5D5F8B410C1F325
:101450000120032858460DD0016821F47C51016019
:10146000B5F8B420DAF80010C2F30B021143CAF841
:101470000010DDE7C84A036802EA111223F47C5128
:101480001143ECE7E86F182816D005DCA0B1082856
:1014900008D0102804D10AE020280DD028280BD02D
:1014A00001240AE00198012101F0BEF903E000984F
:1014B000012101F049FA044664B126462878C04368
:1014C00080071ED4A86F062819D2DFE800F0160C9A
:1014D00011161616EA6FDAF8001021F038011143E0
:1014E000CAF80010EAE70198012101F09DF903E034
:1014F0000098012101F028FA04467CB100E00124A3
:1015000026462878C04340071FD4D5F89400062803
:1015100019D2DFE800F0160C11161616AA6FDAF8C9
:10152000001021F007011143CAF80010E9E7019803
:10153000012101F079F903E00098012101F004FA9A
:101540000446A4B100E0012426462878C043800662
:101550002BD4D5F89000B0F1405F24D011DC10B34B
:10156000B0F1805F15D0B0F1005F10D116E0D5F872
:101570009420D9F8001021F007011143C9F8001098
:10158000E3E7B0F1804F0ED0B0F1A04F0BD00124B3
:101590000AE00198002101F047F903E000980221D8
:1015A00001F0D2F9044694B126462878C04340069B
:1015B0002BD4D5F89C00B0F5406F24D011DC10B3CB
:1015C000B0F5806F15D0B0F5006F10D116E0D5F8EA
:1015D0009020DAF8001021F0E0411143CAF8001021
:1015E000E3E7B0F5805F0ED0B0F5A05F0BD001242B
:1015F0000AE00198002101F017F903E000980221A8
:1016000001F0A2F9044694B126462878C0430006AA
:101610002BD4D5F8A000B0F5C04F24D011DC10B306
:10162000B0F5005F15D0B0F5804F10D116E0D5F8B9
:101630009C20D9F8001021F4E0511143C9F80010A2
:10164000E3E7B0F5004F0ED0B0F5204F0BD00124EA
:101650000AE00198002101F0E7F803E00098022178
:1016600001F072F9044654B126462878C0430007B9
:101670001ED4D5F88400B0F5805F0AD00FE0D5F80D
:10168000A020D9F8001021F460411143C9F80010DE
:10169000EBE70098022101F057F900B10126D5F8D7
:1016A0008420DAF8001021F440511143CAF80010E8
:1016B0002878C043C00613D4D5F89800B0F5807FD1
:1016C00005D10098022101F03FF900B10126D5F8BB
:1016D0009820D9F8001021F440711143C9F8001086
:1016E0002868C043000316D4D5F8A40038B1B0F57B
:1016F000803F09D0B0F5003F0BD001240AE00198EB
:10170000002101F091F803E00098022101F01CF99A
:1017100004468CB126462868C043400322D4D5F83D
:101720008800B0F5801F11D0B0F5001F13D0B0F5C0
:10173000401F15D0012414E0D5F8A420D9F80010DA
:1017400021F440311143C9F80010E4E7386840F44F
:101750000030386004E00098012101F0F5F80446FB
:101760005CB126462868C043C00323D4286DA8B1C5
:10177000B0F5803F17D001241BE0D5F88820DAF8B7
:10178000001021F440111143CAF80010EAE70000EC
:101790004C44025800480258CFFFFF00386840F41C
:1017A0000030386004E00198022101F03DF8044661
:1017B000E4B126462868C043800005D40098022181
:1017C00001F0C2F800B101262868C04380031BD491
:1017D000D5F88000B0B1B0F5807F0FD0B0F5007FB4
:1017E00010D0B0F5407F0DD001240CE05A482A6D8E
:1017F000016821F4803111430160DBE7386840F46F
:1018000000303860ECB326462868C043C00207D4D5
:101810006A6FD8F8001021F000411143C8F8001099
:101820002868C043C00008D4D5F8B820DBF8001001
:1018300021F480411143CBF800102868C043800296
:1018400007D4EA6ED8F8001021F080711143C8F86F
:1018500000102868C04340000CD4DBF8001021F4CD
:101860000041CBF80010DBF80010D5F8BC20114384
:10187000CBF800102868C04308D437486A6D016867
:1018800000E018E021F04051114301602868C04396
:10189000000208D4D5F88C20DAF8001021F44001B9
:1018A0001143CAF8001028790024C04300F0010059
:1018B00020430AD00FE0D5F88020DAF8001021F498
:1018C00040711143CAF800109EE70198002100F012
:1018D000ABFF00B106462879C04300F00200204368
:1018E00005D10198012100F09FFF00B1064628793B
:1018F000C04300F00400204305D10198022100F00C
:1019000093FF00B106462879C04300F00800204349
:1019100005D10098002101F017F800B1064628799A
:10192000C04300F01000204305D10098012101F0D0
:101930000BF800B106462879C04300F020000443AC
:1019400004D10098022100F0FFFF00B916B1012078
:10195000BDE8FE8F0020FBE74C4402582DE9F05F04
:1019600004000F467ED0DFF83882D8F8000000F07F
:101970000F00B8420CD2D8F8001021F00F01394303
:10198000C8F80010D8F8000000F00F00B84269D184
:101990002078844D40070AD52069296801F070013C
:1019A000884204D9296821F0700101432960207818
:1019B0007C4E361D00070AD56069316801F0700160
:1019C000884204D9316821F07001014331602078E8
:1019D000C0060AD5A069316801F4E061884204D9E3
:1019E000316821F4E061014331602078DFF8B4B15F
:1019F00080060BF1080B0CD5E1695846DBF8002096
:101A000002F07002914204D9026822F070020A4387
:101A10000260207880070AD5E068296801F00F018C
:101A2000884204D9296821F00F01014329602078F8
:101A3000C0073ED05B49A2682868183920F470605E
:101A4000104328606068022818D0032819D009685C
:101A5000012819D0490700294ADADFF848A1AAF17C
:101A6000080A00E044E0DAF8002022F0070202430E
:101A7000CAF80020FEF7F2FE814612E009688903E9
:101A8000E9E709688901E6E7C905E4E7FEF7E6FE4C
:101A9000A0EB090141F28830814202D90320BDE860
:101AA000F09F6168DAF8000000F03800B0EBC10F79
:101AB000ECD1207880070AD5E068296801F00F0191
:101AC000884204D2296821F00F0101432960D8F827
:101AD0000010404601F00F01B9420BD9016821F016
:101AE0000F0139430160006800F00F00B84201D0D7
:101AF0000120D4E7207840070AD52069296801F041
:101B00007001884204D2296821F0700101432960E4
:101B1000207800070AD56069316801F070018842B9
:101B200004D2316821F07001014331602078C00691
:101B30000AD5A069316801F4E061884204D23168B5
:101B400021F4E06101433160207880060CD5E16921
:101B50005846DBF8002002F07002914204D202687D
:101B600022F070020A43026000F026F80E492A684B
:101B70002B68C2F3032203F00F038A5CC95C02F0F6
:101B80001F0201F01F01D040084A20FA01F1116044
:101B90000749086007480068BDE8F05FFEF79ABE95
:101BA00000200052184402588C2C00081000002419
:101BB0000C00002404000024454970B5454809681C
:101BC000434B103B11F0380208D00111082A03D012
:101BD000102A0BD0182A0BD0084670BD1968890648
:101BE000FBD51968C1F3C101C84070BD3A4870BD4A
:101BF0003749374D18310C1D24350A6809682668A5
:101C00002D6802F0030406F00102C1F30511C5F3CB
:101C1000CC0515FB02F200EE102AB8EE400AE9B33B
:101C20002F4ADFED2E0AB7EE001A6CB1DFED2D1A48
:101C3000012C01D0022C43D002EE101A1068F8EEED
:101C4000422A81EEA22A1EE01C68A40611D51B6858
:101C500001EE901A1168C3F3C103F8EE612AD8406F
:101C600001EE900AC1F30800F8EE611A81EEA22A93
:101C70000BE001EE901ADFED1C2A00BFF8EE611AAE
:101C8000106882EEA12AC0F3080001EE900AF8EE77
:101C9000611A40EE201A31EE810A00E015E022EED2
:101CA000000A1068C0F34620401C00EE900AF8EECF
:101CB000600A80EE201ABCEEC10A10EE100A70BD58
:101CC00001EE901ADFED092AD8E7002070BD000070
:101CD000104402580090D00340787D010000003984
:101CE000304402580024744A0024744C20BCBE4B7B
:101CF0002DE9F05F04007DD0FF4F2078FE4D1837AE
:101D0000DFF8F493103DC00748D0D9F800003968D7
:101D100000F03800102815D0182803D101F0030076
:101D200002280FD06068B0F5803F12D010B1B0F536
:101D3000A02F18D0286820F480302860286820F46C
:101D4000802009E02868800328D560680028D2D068
:101D500024E0286840F480302860606888B1FEF78D
:101D60007DFD064609E0286840F480202860F0E701
:101D7000FEF774FD801B64286FD828688003F7D5B0
:101D80000CE0FEF76BFD064605E000BFFEF766FDC2
:101D9000801B6428F0D828688003F7D4207841F2AB
:101DA0000308D54E0C3E800769D5D9F80000396884
:101DB00010F038000ED0182801D188070AD0E0684A
:101DC00090B3296821F0190101432960FEF746FD0F
:101DD000824631E02868400702D5E06800288AD0B2
:101DE000E168286820F0190008432860FEF736FDF6
:101DF000824607E0DFE000BFFEF730FDA0EB0A00FF
:101E00000228B9D828684007F6D500BFFEF720FDA4
:101E100040451BD82069402812D0316821F47C311C
:101E200041EA003030602AE018E000BFFEF716FDFE
:101E3000A0EB0A0002289FD828684007F6D5E5E7FE
:101E4000306820F47C3040F40030EBE7207C3168CF
:101E500021F0FE4141EA0060E4E70DE1286820F04E
:101E600001002860FEF7FAFC824605E0FEF7F6FC6A
:101E7000A0EB0A0002288DD828684007F6D4207805
:101E8000C0065DD5D9F80000DFF86CB2396800F003
:101E90003800ABF1040B082810D0182803D101F04A
:101EA000030001280AD0E0690028286838D040F0F3
:101EB00080002860FEF7D2FC824623E02868C00537
:101EC00023D5E069802876D11FE0206A202821D020
:101ED000316821F0F84141EA8060306030E000BFB5
:101EE00094F82010DBF8002022F07C5242EA0161D5
:101EF000CBF8001024E000BFFEF7B0FCA0EB0A0016
:101F0000022898D82868C005F6D5FEF7A1FC404500
:101F1000E6D8DAE7306820F0F84040F08040DCE7AF
:101F200020F080002860FEF799FC064605E000BF1F
:101F3000FEF794FC801B02289DD82868C005F7D4C2
:101F40002078000729D56C486169643000298046F3
:101F5000016811D041F001010160FEF77FFC0646E7
:101F600005E000BFFEF77AFC801B0228C9D8D8F82C
:101F700000008007F6D510E021F001010160FEF7B6
:101F80006DFC064605E000BFFEF768FC801B0228DA
:101F900072D8D8F800008007F6D42078800623D5C0
:101FA000A0690028286810D040F480502860FEF70F
:101FB00055FC064605E036E1FEF750FC801B022882
:101FC0005AD828688004F7D50EE020F480502860A5
:101FD000FEF744FC064604E0FEF740FC801B0228A6
:101FE0004AD828688004F7D4207840074FD5DFF816
:101FF0000C81D8F8001041F48071C8F80010FEF789
:102000002DFC064605E000BFFEF728FC801B642877
:1020100032D8D8F80000C005F6D5374EA068603633
:1020200001280AD008B1052813D0306820F001003B
:102030003060306820F0040002E0306840F00100B9
:102040003060A06841F2883A90B1FEF707FC804604
:102050000AE0306840F004003060EEE7FEF7FEFB77
:10206000A0EB0801514507D830688007F6D50EE08F
:10207000FEF7F4FB804607E084E000BFFEF7EEFBCE
:10208000A0EB080151457DD830688007F6D4606A1E
:10209000B0B3DFF86480D9F8001008F120084FF6DB
:1020A000F87B08F10409C1F3C2010329A8F1040A6D
:1020B00069D00228286820F08070286003D0FEF7DD
:1020C000CDFB044684E0FEF7C9FB064605E000BFF1
:1020D000FEF7C4FB801B022877D828688001F7D45C
:1020E000E26A40F2F331386854F8283F884340EA06
:1020F00002101843386004E01044025800480258A7
:10210000B5E0217B434622894FF4FE0C208A4FF034
:10211000FE474902267D521E401EA1F50071C2F302
:1021200008088AB2761E0CEA004042EA080202431E
:10213000504607EA06610A431A60DAF8002022F0E6
:102140000102CAF80020D9F80020266A22EA0B0210
:1021500042EAC602C9F80020DAF80010A26921F0AC
:102160000C011143CAF800100168E26921F0020174
:1021700011430160016841F480310160016841F45C
:10218000003101E021E027E00160016841F4802195
:102190000160016841F001010160286840F0807031
:1021A0002860FEF75BFB044605E000BFFEF756FB28
:1021B000001B022809D828688001F7D557E000BF26
:1021C000FEF74CFB001B022802D90320BDE8F09F5C
:1021D00028688001F4D44AE039680128D8F8000062
:1021E00021D0A26A01F0030393421CD1E26AC1F339
:1021F00005118A4217D1216BC0F30802491E8A4299
:1022000011D1616BC0F34622491E91420BD1A16BE3
:10221000C0F30642491E914205D1E16BC0F306604E
:10222000491E814201D00120D0E7A16C4E46D9F869
:102230000000C0F3CC00814219D0DAF80000554606
:1022400020F00100CAF80000FEF708FB4FEA000783
:10225000FEF704FBB842FBD0A26C306820EA0B000A
:1022600040EAC2003060286840F001002860002089
:10227000ACE7401EB0F1807F10B501D3012010BD46
:102280004FF0E02460610F21601700F0B8FC0020DF
:10229000A0610721216110BDFEE70000194808B5C3
:1022A000016841F040010160016801F040010091C6
:1022B000016841F001010160016801F00101009134
:1022C000016841F004010160016801F0040100911E
:1022D000016841F080010160016801F08001009116
:1022E000016841F020010160016801F020010091C6
:1022F000016841F002010160006800F002000090F6
:1023000008BD0000E04402582DE9F04112490022C6
:102310004FEA0200401C4C2801F8012BFAD30E4C66
:102320000E4D20462560FEF7F8FB012020C41F213A
:1023300010221923860284E84F004027E76160617C
:10234000201FFEF7FDFB002803D0BDE8F041FEF79B
:10235000AFB8BDE8F0810000140000240050005226
:10236000FEE7FEE7704700B5B1B0C0216846FEF752
:1023700003F8002015904FF00041CDE900106846A9
:10238000FEF716FE002801D072B6FEE731B000BDA0
:1023900030B595B04FF480740021220405230793D3
:1023A000CDE90D41CDE90F1201230C9102241291C8
:1023B000102213911491CDE9011395040346CDE940
:1023C0000324064801AACDE9051507A9FEF70CFB71
:1023D000002800D0012015B030BD000014000024FA
:1023E0002DE9F0434B6A4FF040652BB1AA4203D070
:1023F00004688B6A5B1E23618B69002B68D00C6AB2
:10240000B4B303688C68DC61CC69FCB1D1E90B38EA
:10241000D1F824C04E6B8F8A43EA080346EA0C06C3
:1024200033430E6A43EA8743D1E9037C43EA0C0352
:1024300033438E693B430F682343046833433B4374
:1024400065E0006849688161BDE8F083D1E90B3639
:102450004F6A4C6B8D8A33433C430E6923430C6AAD
:1024600043EA85438D693343096823432B4362E084
:10247000FFE7CC69B4F1000918D0D1E90B484F6AE5
:102480004E6BB1F814C044EA08043E430F6834436D
:10249000CE6844EA8C44344344EA09041C4303688C
:1024A0003C431443AA425C61CBD1CDE7D1E90B4652
:1024B0004F6A4D6BB1F814C034433D4300682C4360
:1024C000096844EA8C441C430C4314434461BBE751
:1024D0000B6AABB303688C68DC61CC69E4B1D1E909
:1024E0000B38D1F824C04E6B8F8A43EA080346EAC2
:1024F0000C0633430E6A43EA8743D1E9037C43EA7F
:102500000C0333438E693B43234304683343134333
:10251000AA42636195D197E7D1E90B364F6A4C6BBC
:102520008D8A33433C430E6923430C6A43EA854357
:1025300089693343234300680B431343436183E7B3
:10254000FFE7CC6984B1D1E90B384F6A4E6BB1F823
:1025500014C043EA08033E433343CE6843EA8C4346
:10256000334323430468D2E74C6A002C9DD0D1E961
:102570000B368F8A4D6B0168334325432B4343EA67
:102580008740104348615FE770B590B000204FF47A
:1025900040610F904FF480768B030B900C90EC25EC
:1025A0000D908A0009930624CDE9066100956946DD
:1025B0000E900548059403920EAAFEF717FB00281B
:1025C00000D0012010B070BD1400002410B58EB0F2
:1025D00000204FF48071B7220092CDE906100890D8
:1025E000099005900B900C900D9000F0E7F841F2E7
:1025F0008834074822466946FEF74CFA20B920463F
:10260000FFF7C6FE002800D001200EB010BD00006C
:102610001400002410B592B001284FF48071069187
:1026200004D0022804D0032804D005E0052002E0ED
:10263000352000E0152000904FF4806407940020BE
:102640000190A20305904FF440510391022341F2FF
:102650008834CDE90802CDE90A300C9022460D906D
:1026600069460848FEF716FA00B1FEE705480EA9CC
:102670002246FEF7E1FB00B1FEE7BDF8380012B0DC
:1026800040BA10BD1400002410B540F2011401201E
:10269000FFF7C0FF2042FAD110BD000013B58EB085
:1026A000044600F08BF870BB012C4FF001014FF491
:1026B0008070069004D0022C04D0032C04D005E0D6
:1026C000009103E0312000E01120009000200390F1
:1026D0004FF080720790019041F288340590CDE967
:1026E0000802CDE90A100C9022460D9069460B486D
:1026F000FEF7D0F900B1FEE708480FA92246FEF721
:10270000FBFB08B1FEE705E04FF44870FFF740FE21
:10271000002800D0012010B010BD000014000024DB
:1027200010B58EB041F2883400204FF480716622DB
:102730000092CDE90610089022460990694605905E
:102740000B900C900D900A48FEF7A4F960B99920FF
:102750000090074822466946FEF79CF920B92046BA
:10276000FFF716FE002800D001200EB010BD0000BB
:10277000140000242DE9F041984616460F46044601
:10278000069D08E0681C06D0FEF768F8A0EB08007C
:10279000A8420AD84DB120688068384000D0012096
:1027A000B042EFD10020BDE8F081042084F8410060
:1027B000606C40F0010060640120F4E7F0B595B072
:1027C00000244FF4807006210691CDE90C040E948C
:1027D0000F940B94119412941394FFF755FF41F248
:1027E0008835104806A92A46FEF754F9B0B90220E8
:1027F000009005230494420501901021CDE90523A2
:1028000001272B46C6056A46CDE90210054806A9F0
:10281000CDE90F67FEF7E8F8002800D0012015B0D9
:10282000F0BD0000140000242DE9F047454D04469A
:1028300089464FF0000A2868C04380070AD0414EFD
:10284000283E306820F080603060FEF707F80746C9
:10285000B04608E00120BDE8F08700BFFDF7FEFFAD
:10286000C01B022867D8D8F800000001F6D4206801
:1028700029684FF4FE0721F47C313E0241EA003022
:102880002860207AA389B4F804C040022D4D2D4958
:102890005B1E227CACF1010C1035091DA0F5007007
:1028A00080B2521ECCF3080C07EA034340EA0C0046
:1028B000184306EA0262104328600868626920F043
:1028C000C000104308600A68A06922F02002024399
:1028D0000A60281D0A6822F010020A6002684FF69A
:1028E000F873E4699A4342EAC40202600868B9F1E5
:1028F000000F40F010020A6011D00868B9F1010F12
:1029000011D040F400100860D8F80000444640F0B0
:102910008060C8F80000FDF7A1FF05460DE00868DB
:1029200040F40020EFE740F48010ECE7FDF796FF5D
:10293000401B022801D903208DE720680001F5D54E
:10294000504688E7284402582DE9F047454D044693
:1029500089464FF0000A2868C04380070AD0414EDC
:10296000283E306820F080503060FDF777FF074642
:10297000B04608E00120BDE8F08700BFFDF76EFF1C
:10298000C01B022867D8D8F800008000F6D4208841
:1029900029684FF4FE0721F07C713E0241EA0050A5
:1029A0002860207AA389B4F804C040022D4D2D4937
:1029B0005B1E227CACF1010C1835091DA0F50070DE
:1029C00080B2521ECCF3080C07EA034340EA0C0025
:1029D000184306EA0262104328600868626920F41E
:1029E0004060104308600A68A06922F40072024344
:1029F0000A60281D0A6822F480720A6002684FF695
:102A0000F873E4699A4342EAC40202600868B9F1C3
:102A1000000F40F480720A6011D00868B9F1010F0C
:102A200011D040F080700860D8F80000444640F0B3
:102A30008050C8F80000FDF711FF05460DE008685A
:102A400040F48000EFE740F40000ECE7FDF706FFFC
:102A5000401B022801D903208DE720688000F5D5AE
:102A6000504688E7284402587047FDF7FDBE000035
:102A7000F0B59DB04C216846FDF77EFC202113A8DF
:102A8000FDF77AFC0220FDF785FF23490025234846
:102A90000A6822F001020A600968016841F44041B5
:102AA0000160016801F440411B9101688904FCD573
:102AB00002204FF0A00C0DF1280E0990C10303264F
:102AC0000523CDE900618EE8091004210D90402412
:102AD00012950827CDE90E0101226846CDE910754F
:102AE000CDE90324FFF704F908B172B6FEE74FF40D
:102AF000806115953F201A94CDE91674CDE91841EF
:102B0000CDE91306022113A8FEF728FF002801D003
:102B100072B6FEE71DB0F0BD2C04005818480258EC
:102B20002C48F0B52C4A016841F47001016010682E
:102B300000F00F00072804D2106820F00F00C01D1D
:102B4000106026490020254C10340B68244D43F0BA
:102B500001030B6020600B682B400B60136803F0CF
:102B60000F03072B04D9136823F00F03DB1D136039
:102B70001A4C1C4A18341C4B261D371D2060174C5C
:102B80001A4D28343060261D3860371D23603B1DE8
:102B900035601C1D3A60251D2E1D1860331D2260F6
:102BA0002860326018600A680C4B114C22F48022B5
:102BB00060330A60186020686FF30F00B0F1005FA7
:102BC00003D20C490120C1F8080143F2D2000A499E
:102BD0000860F0BD88ED00E000200052004402587B
:102BE0007FEDF6EA80020101000202020000FF010F
:102BF0000010005C0080005100400052FEE7090711
:102C000000284FEA116104DB00F1E02080F8001495
:102C1000704700F00F0000F1E02080F8141D7047AD
:102C200008B5FDF729FEFFF723FFFFF79CFBFFF731
:102C300035FBFFF769FB00210120FFF72FFDFDF7B2
:102C4000FFFBFFF7A1FC00204FF010410091012194
:102C500081F310884FF0E021421E086148618861CD
:102C6000810001F1E021401C0828C1F88021C1F851
:102C70008022F5D3002080F31088009840688047B8
:102C8000FEE74FF04070E1EE100A704700000000D0
:102C9000010203040102030406070809BC2C000812
:102CA0000000002414000000D4020008D02C00080A
:102CB00014000024AC060000F0020008010000002F
:102CC00010000000000000000090D0030090D0032E
:040000050800029954
:00000001FF
